:020000040800F2
:100000002004002049010008510E0008FB0B0008E5
:100010004D0E0008A5080008B91A000800000000ED
:100020000000000000000000000000008D16000825
:10003000190900080000000049120008791700089B
:100040006301000863010008630100086301000800
:1000500063010008630100081D090008630100082E
:1000600063010008630100086301000863010008E0
:1000700063010008630100086301000863010008D0
:1000800063010008630100086301000863010008C0
:1000900063010008630100086301000863010008B0
:1000A00063010008630100086301000863010008A0
:1000B0006301000863010008630100086301000890
:1000C0006301000863010008630100086301000880
:1000D0006301000863010008630100086301000870
:1000E0006301000863010008630100086301000860
:1000F0006301000863010008630100086301000850
:10010000630100086301000863010008630100083F
:10011000630100086301000863010008630100082F
:10012000630100086301000863010008630100081F
:10013000DFF810D000F094FB00480047F5230008DA
:10014000AFF300802004002006488047064800479F
:10015000FEE7FEE7FEE7FEE7FEE7FEE7FEE7FEE777
:10016000FEE7FEE74118000831010008421C10F8C4
:10017000011B0029FBD1801A7047F0B480EA01020C
:10018000D40F4200B2EB410F02D20246084611469C
:100190004A0042D0C30DDDB2C1F3C752AD1A202DC3
:1001A00035DAC1F3160141F4000204B15242C5F13F
:1001B000200602FA06F12A411044B3EBD05F23D0A7
:1001C000C4B1012DA0EBC35009DCF0BC4FF00042DC
:1001D00002EAC352DBB200F5000000F085BA40002D
:1001E00000F1807000EBC350A0F1807040EAD17044
:1001F000490009E0490841EAC071A0EBC35000F58D
:100200000000400800EBC350F0BC00F064BA61424B
:10021000012202EB4101001BF6E7F0BC704781F0C0
:100220000041AAE780F00040A7E780EA010210B58C
:1002300002F00043400022D04A001FD0010E01EB23
:100240001261C0F35600C2F3560240F4000042F4BB
:100250000002A0FB022000047F39140400D0401CDF
:1002600050EA124001D44000491EC2B20C0604EB11
:10027000D010401C4008802A02D003E0002010BDAE
:1002800020F00100002900DA0020184310BD2DE9FC
:10029000FE4F804681EA0300C00F0C46009021F01B
:1002A000004123F00045B8EB0200A94105D24046C9
:1002B000214690461C460B46024623F00040104360
:1002C00047D0270DC7F30A00C3F30A510290401A22
:1002D000019040286BDAC3F3130040F4801B0098B0
:1002E000924620B10023D2EB030A63EB0B0B01987B
:1002F0005946C0F14002504600F0CCF906460D4682
:1003000050465946019A00F0D4F910EB08006141BB
:10031000002487EA115284EAE7731A4340D0009A16
:1003200062B3019A012A4FEA075215DC001B61EB08
:1003300002014FF0004202EA0752CDE90042001CE0
:1003400041F5801132462B4600F00BFA03B0BDE8B0
:10035000F08F40462146F9E7001B61EB0201001CCB
:1003600041F5801300185B412018A2F5001747EBF8
:10037000030140EAD570B6196D4111E06D084FEAEE
:10038000360645EAC0754FEA0752001B61EB0201D1
:10039000001C41F5801149084FEA30000019514115
:1003A00032462B4603B0BDE8F04F00F0CBB90098C1
:1003B000012240000023D0EB020263EBE0730098BF
:1003C00021464FEAE074B8EB000061EB0401E9E775
:1003D00083F000435BE781F0004158E72DE9FE4FD1
:1003E00081EA030404F0004421F0004100944FF03E
:1003F000000B23F0004350EA01045ED052EA0304EC
:100400005BD0C3F30A54C1F30A552C44A4F2F3346D
:100410000194A0FB0254C1F3130141F48011C3F312
:10042000130343F4801301FB024400FB034E840AD0
:10043000970A44EA815447EA8357A4FB0768029568
:100440008D0A05FB07854FEA932C04FB0C54270506
:10045000029D4FEA065847EA1637B5EB08056EEBE2
:10046000070C870E920E47EA811742EA8312A7FB18
:100470000201B6EB0B0164EB00042B0D43EA0C33D5
:100480005E1844EB1C50DA465146E7FB0201C5F307
:1004900013044FEA0B3343EA14534FEA0432019C2E
:1004A00043EA0603A4F10C040294009CCDE900B4D5
:1004B00000F057F903B0BDE8F08F00200146F9E7DE
:1004C0002DE9F04D81EA030404F0004B21F00045D2
:1004D00014464FF0000A23F0004150EA050220D0F4
:1004E00054EA01021DD0C5F30A570246C5F31303AF
:1004F000C1F31300C1F30A5640F4801543F480138E
:10050000A7EB0608101BD64608F2FD3873EB050072
:1005100002D308F1010801E092185B41B8F1000F25
:1005200003DA00200146BDE8F08D00204FF4801171
:10053000064684460EE0171B73EB050705D3121B16
:1005400063EB050306434CEA010C49084FEA30000F
:1005500092185B4150EA0107EDD152EA030012D034
:1005600082EA040083EA0501084305D0101BAB4171
:1005700006D20122002306E000224FF0004302E0F1
:100580006FF0010253101AEB06004CEB085110EB10
:100590000A0041EB0B01BDE8F04D00F0D3B8962303
:1005A0000022114600F0A0B800F0004230F00040F8
:1005B0000AD0C10D01F56071C0F3160042EA015185
:1005C000C20840071143704700200146704701F000
:1005D000004330B421F0004150EA010206D00A0D78
:1005E000A2F56072C1F31301002A02DC30BC0020C6
:1005F0007047440F44EAC104C100E01830BC00EB6E
:10060000C25000F068B830B50B46014600202022E9
:10061000012409E021FA02F59D4205D303FA02F50F
:10062000491B04FA02F52844151EA2F10102F1DC6F
:1006300030BD2DE9F05F0546002092469B46884676
:100640000646814640241BE028464146474622464E
:1006500000F018F953465A46C01A914110D311467A
:100660001846224600F016F82D1A67EB01084F468F
:1006700022460120002100F00DF817EB00094E4141
:10068000201EA4F10104DFDC484631462A464346D9
:10069000BDE8F09F202A04DB203A00FA02F1002096
:1006A00070479140C2F1200320FA03F319439040B0
:1006B0007047202A06DBCB17203A41FA02F043EAC2
:1006C000E07306E041FA02F3D040C2F1200291400B
:1006D0000843194670470029A8BF7047401C4900CD
:1006E00008BF20F00100704710B4B0FA80FC00FA97
:1006F0000CF050EA010404BF10BC704749B1CCF1C2
:10070000200421FA04F411FA0CF118BF012121434D
:100710000843A3EB0C01CB1D4FEA00614FEA102008
:1007200042BF002010BC704700EBC35010440029AA
:10073000A4BF10BC7047401C490008BF20F0010056
:1007400010BC704710B5141E73F1000408DA401C89
:1007500041F1000192185B411A4301D120F00100E0
:1007600010BD2DE9F04D92469B4611B1B1FA81F2D0
:1007700002E0B0FA80F220329046FFF78BFF044689
:100780000F4640EA0A0041EA0B0153465A46084325
:1007900013D0114653EA010019D0C8F14002504667
:1007A00000F070F805460E46504659464246FFF79F
:1007B00071FF084305D0012004E020463946BDE81A
:1007C000F08D0020054346EAE0762C4337430A9833
:1007D0006305E40AA0EB08000022FD0A44EA47543E
:1007E0000A3002D500200146E9E7010510196941E8
:1007F000DDE9084500196941BDE8F04DA2E7C1F304
:100800000A52C1F3130140F2FF3341F480119A42BE
:1008100002DA00200146704740F233439A42A2F2C6
:10082000334202DC524200F02DB8FFF733BF000024
:1008300030B5041E71F1000404DB4FF00044404267
:1008400064EB0101141E73F1000405DB1C464FF03C
:100850000043524263EB0403994208BF904230BD0B
:10086000064C074D06E0E06840F0010394E80700FD
:1008700098471034AC42F6D3FFF75EFC24280008FA
:1008800044280008202A04DB203A21FA02F0002143
:10089000704721FA02F3D040C2F120029140084390
:1008A0001946704700BFFEE700F0805111B10349BF
:1008B000086001E0024948607047000004040240FB
:1008C0000000024021B1026842F00102026004E02F
:1008D00002684FF6FE731A400260704710B500229E
:1008E000026847F6F0739A430C6A8B6823430C69DD
:1008F00023434C6923438C692343CC6923434C6ACB
:1009000023438C6A23431A430260CB6843600B681D
:1009100083604B68C36010BD7047000010B50120B4
:1009200000F016F838B10648007808B9012000E058
:10093000002003490870012000F004F810BD0000F9
:1009400014000020014908607047000014040140B1
:10095000014600200022074B1B6803EA0102054BF9
:1009600014331B680B4013B10AB1012000E00020D2
:100970007047000000040140002123498279002AC9
:100980003AD00A46126803689A430B461A600A1D59
:10099000126803689A430B1D1A60027911440A68B1
:1009A00003681A430A60184A0832126803689A43B7
:1009B000154B08331A601A1D126803689A43124BCC
:1009C0000C331A604279102A0ED11A1F126803687C
:1009D0001A430D4B08331A601A1D126803681A4334
:1009E000094B0C331A600DE00749427911440A683B
:1009F00003681A430A6005E0027911440A68036833
:100A00009A430A6070470000000401400EB500F0F0
:100A100027F80121042000F039FC0120ADF808007E
:100A200004208DF80B0002A90C4800F04DF80121BC
:100A3000084600F02BFC0021084600F025F80120B4
:100A4000009000208DF8040008208DF8050001209A
:100A50008DF806006846FFF78FFF0EBD00080140C5
:100A600008B54FF4C06000F02DFA06208DF80000A4
:100A700001208DF801008DF802008DF80300684612
:100A800000F0E8F908BD000030B500228B071C0F0C
:100A90000F2303FA04F20B4B8C1053F824309343CA
:100AA000084C8D1044F8253023468C1053F8243020
:100AB0008C07240F00FA04F42343024C8D1044F8F1
:100AC000253030BD080001402DE9F04102460025E7
:100AD0000026002000230024002791F803C00CF01A
:100AE0000F0591F803C00CF0100CBCF1000F03D0FF
:100AF00091F802C04CEA050591F800C0BCF1000F66
:100B000031D0146800202BE04FF0010C0CFA00F3F8
:100B1000B1F800C00CEA03069E4220D183004FF0DA
:100B20000F0C0CFA03F7BC4305FA03FC4CEA04046F
:100B300091F803C0BCF1280F06D14FF0010C0CFA5C
:100B400000FCC2F814C00AE091F803C0BCF1480FE1
:100B500005D14FF0010C0CFA00FCC2F810C0401C8B
:100B60000828D1D31460B1F800C0BCF1FF0F34DD08
:100B7000546800202EE000F1080C4FF0010808FA3C
:100B80000CF3B1F800C00CEA03069E4221D18300A9
:100B90004FF00F0C0CFA03F7BC4305FA03FC4CEAC8
:100BA000040491F803C0BCF1280F05D100F1080C32
:100BB00008FA0CF8C2F8148091F803C0BCF1480F91
:100BC00007D100F1080C4FF0010808FA0CF8C2F840
:100BD0001080401C0828CED35460BDE8F081024646
:100BE000002093680B400BB1012000E0002070470B
:100BF0000AB1016100E04161704700BFFEE70000FB
:100C000000B585B00121480500F030FB0121082026
:100C100000F03CFB8020ADF800001C208DF80300A4
:100C200003208DF8020069461648FFF74DFF40206B
:100C3000ADF800001C208DF8030003208DF80200A1
:100C400069461048FFF740FF0F4801900020ADF8BB
:100C500008004BF6FF70ADF80A000020ADF80C005C
:100C60004FF48040ADF810000120ADF80E0001A94E
:100C7000064800F053F80121044800F02AF805B0B6
:100C800000BD0000000C0140801A06000054004026
:100C900021B1028842F48062028004E002884FF6AB
:100CA000FF331A400280704770B5024600240025C9
:100CB00000230020958A138B1B0445EA030626F0C7
:100CC0007F4404EA01068E4201D1012000E00020A9
:100CD00070BD21B1028842F00102028004E0028866
:100CE0004FF6FE731A400280704721B1028842F429
:100CF0008072028004E002884FF6FF631A4002808F
:100D0000704721B1028842F40072028004E0028838
:100D10004FF6FF531A400280704700002DE9F04360
:100D200085B004460D460026B1460427DFF8CC8086
:100D3000A6884FF6C0700640684600F0B7FADDF8A6
:100D400008802F48B8FBF0F01FFA80F946EA090640
:100D5000A68020884FF6FE71084020800026294991
:100D6000286888420CD828684000B8FBF0F087B2A9
:100D7000042F00DA04273E4309F10100208427E014
:100D8000E8884BF6FF71884206D1286800EB4000E6
:100D9000B8FBF0F087B209E0286800EBC00101EB76
:100DA0000010B8FBF0F087B247F48047C7F30B00A0
:100DB00008B947F0010747F4004006434FF4967026
:100DC00009FB00F04FF47A7190FBF1F0401C208495
:100DD000A683208840F00100208026884FF6F53059
:100DE0000640A8886989084306432680A88929897E
:100DF0000843208105B0BDE8F083000000127A00AE
:100E000040420F00A08601000146088AC0B2704728
:100E100012B141F0010102E04FF6FE731940018268
:100E2000704701827047000008B50121042000F0DE
:100E30002DFA0120ADF8000004208DF8030069466A
:100E40000148FFF741FE08BD0008014000BFFEE772
:100E50007047000070B5002100230F22C47804B34E
:100E6000154C246804F4E064C4F5E064210AC1F17F
:100E70000403CA40447804FA03F1847814402143FF
:100E800009010E4C0678A155047804F01F050124D1
:100E9000AC4005786D11AD0005F1E025C5F80041C5
:100EA00009E0047804F01F050124AC40044D0678E5
:100EB000761145F8264070BD0CED00E000E400E03E
:100EC00080E100E002490143024A116070470000DE
:100ED0000000FA050CED00E070B500240EE00021E2
:100EE000204600F0F5F8002504E0002000F0A3F90A
:100EF000681CC5B2802DF8DB601CC4B2082CEEDB88
:100F000070BD000010B50446224601210148FFF7DC
:100F10006FFE10BD000C0140F0B585B005460C46D3
:100F20002046FFF741FB0CA2CDE900010A2102A8EF
:100F300000F0D4FD0AA20021284600F00FF902AA11
:100F40002421284600F00AF907A24221284600F091
:100F500005F905B0F0BD0000252E31660000000047
:100F600048756D3A000000002500000000B587B00C
:100F7000012141F20C0000F089F918208DF81B00C6
:100F800003208DF81A00A020ADF8180006A94848E3
:100F9000FFF79AFD10208DF81B000220ADF8180015
:100FA00006A94448FFF790FD0120ADF8180006A9F6
:100FB0004048FFF789FD4FF44040ADF804004FF47E
:100FC0008270ADF806000020ADF80800ADF80A0008
:100FD000ADF80C004FF40070ADF80E002020ADF815
:100FE00010000020ADF812000720ADF8140001A990
:100FF000314800F014FB01212F4800F0F9FA0020DD
:1010000000F05CF8322000F0EDFB012000F056F813
:10101000322000F0E7FBAE2000F004F9D52000F00C
:1010200001F9802000F0FEF8A82000F0FBF83F2036
:1010300000F0F8F8D32000F0F5F8002000F0F2F806
:10104000402000F0EFF8AD2000F0ECF88B2000F02D
:10105000E9F8302000F0E6F8A12000F0E3F8C8201D
:1010600000F0E0F8DA2000F0DDF8122000F0DAF805
:10107000812000F0D7F87F2000F0D4F8D92000F0CC
:10108000D1F8222000F0CEF8DB2000F0CBF8402091
:1010900000F0C8F8A42000F0C5F8A62000F0C2F8BF
:1010A000AF2000F0BFF8FFF717FF07B000BD00004A
:1010B00000080140000C01400030014010B504461A
:1010C000224602210148FFF793FD10BD000C0140AC
:1010D00070B504460D46A81CC6B204F1B001C8B2F2
:1010E00000F0A0F806F00F0000F09CF8102141EA93
:1010F000261000F097F870BD2DE9F04106460F4626
:101100001546A5F1200000EB4000094901EB40081D
:1011100039463046FFF7DCFF002405E018F80400EC
:1011200000F089F8601CC4B2062CF7DBBDE8F08142
:10113000E425000870B505460E4631462846FFF7FF
:10114000C7FF002405E00449085D00F074F8601C46
:10115000C4B2062CF7DB70BD1E2800082DE9F04153
:1011600005460E4614461EE07A2E05DD0026681C54
:10117000C5B2072D00DD002531462846FFF7A8FF40
:1011800000270BE02178203901EB4101084A02EBEE
:101190004101C85D00F04FF8781CC7B2062FF1DBA3
:1011A000B01DC6B2641C20780028DDD1BDE8F081F6
:1011B000E42500082DE9F04385B081460C4615462C
:1011C0003C262046FFF7F0F912A2CDE900010A21E2
:1011D00002A800F083FC11A200214846FFF7BEFFE1
:1011E00002AA24214846FFF7B9FF3C214846FFF7F1
:1011F000A1FFB61D2DB1432231464846FFF77CFFC3
:1012000004E0462231464846FFF776FF05B0BDE8C8
:10121000F0830000252E31660000000054656D70DB
:101220003A00000010B504460020FFF76BFE204690
:1012300000F014FA10BD10B504460120FFF762FE5D
:10124000204600F00BFA10BD7047000029B1064A95
:1012500052690243044B5A6104E0034A52698243D3
:10126000014B5A61704700000010024029B1064A44
:10127000D2690243044BDA6104E0034AD269824333
:10128000014BDA61704700000010024029B1064AA4
:1012900092690243044B9A6104E0034A92698243D3
:1012A000014B9A61704700000010024030B50021E8
:1012B0000022002400232D4D6D6805F00C0121B1A2
:1012C000042905D0082923D105E0294D056022E035
:1012D000274D05601FE0254D6D6805F47012234D04
:1012E0006D6805F48034022505EB92421CB9214D4E
:1012F000554305600BE01D4D6D6805F400351DB1CB
:101300001C4D5543056002E0194D5543056002E050
:10131000174D056000BF00BF144D6D6805F0F0016A
:101320000909154D6B5C0568DD4045600F4D6D6822
:1013300005F4E061090A104D6B5C4568DD4085608D
:101340000A4D6D6805F46051C90A0B4D6B5C456828
:10135000DD40C560054D6D6805F44041890B074DC2
:101360006B5CC568B5FBF3F5056130BD001002404C
:1013700000127A0000093D0000000020100000204B
:101380002DE9F04F87B000F0F9F901214348FFF74C
:10139000ACFC00BF42494148FFF786FC0028F9D069
:1013A000002280213D48FFF733FD00BF3D493B4807
:1013B000FFF77AFC0028F9D0F5213848FFF731FD16
:1013C00000BF3849891C3548FFF76EFC0028F8D06B
:1013D00001213248FFF795FC642000F003FA012157
:1013E0002E48FFF782FC00BF2D492C48FFF75CFC1C
:1013F0000028F9D0012280212848FFF709FD00BF0D
:101400002749491C2548FFF74FFC0028F8D000BFAA
:1014100023493F312148FFF747FC0028F8D01F48F7
:10142000FFF7F2FC044600BF1D493F311B48FFF7A0
:101430003BFC0028F8D01948FFF7E6FC8146002164
:101440001648FFF725FC01211448FFF75AFC09F064
:10145000FC0040EA042A5046FFF7A1F80190FFF78C
:10146000A3F807460022104BFEF7B8FF00220F4BEF
:10147000CDE90201FFF724F800220D4BCDE904016C
:10148000FEF705FF0546FFF7A2F883460121034852
:10149000FFF7FEFB584607B0BDE8F08F0054004050
:1014A000010003008200070000405F400000F040A0
:1014B000000018C02DE9F04F87B000F05FF901215E
:1014C0004348FFF712FC00BF42494148FFF7ECFBDD
:1014D0000028F9D0002280213D48FFF799FC00BF89
:1014E0003D493B48FFF7E0FB0028F9D0F32138489D
:1014F000FFF797FC00BF3849891C3548FFF7D4FB3C
:101500000028F8D001213248FFF7FBFB642000F0EF
:1015100069F901212E48FFF7E8FB00BF2D492C484F
:10152000FFF7C2FB0028F9D0012280212848FFF7ED
:101530006FFC00BF2749491C2548FFF7B5FB002871
:10154000F8D000BF23493F312148FFF7ADFB002809
:10155000F8D01F48FFF758FC044600BF1D493F3133
:101560001B48FFF7A1FB0028F8D01948FFF74CFCF7
:10157000814600211648FFF78BFB01211448FFF735
:10158000C0FB09F0FC0040EA042A5046FFF707F8C8
:101590000190FFF709F80746104A114BFEF71EFFAE
:1015A0000022104BCDE90201FEF78AFF0E4A0F4BD5
:1015B000CDE90401FEF76BFE0546FFF708F8834608
:1015C00001210348FFF764FB584607B0BDE8F08FE0
:1015D000005400400100030082000700D7A3703DC3
:1015E0000AF765400000F040CDCCCCCCCC6C47C0B5
:1015F00021B1028842F04002028004E002884FF6E6
:10160000BF731A40028070470246002013890B40C6
:101610000BB1012000E0002070478181704710B5B8
:101620000022028802F441520B884C8823438C88A4
:101630002343CC8823430C8923434C8923438C893F
:101640002343CC8923431A430280838B4FF2FF74D8
:10165000234083830B8A038210BD000010B504462B
:1016600000BF02210848FFF7CFFF0028F9D021462C
:101670000548FFF7D2FF00BF80210348FFF7C4FFF2
:101680000128F9D010BD000000300140704710B5AE
:1016900000F002F810BD00000CB500200190009091
:1016A0003348006840F480303149086000BF30485A
:1016B000006800F4003000900198401C01900098F0
:1016C00018B90198B0F5A06FF1D12948006800F46D
:1016D000003010B10120009001E00020009000983F
:1016E000012843D12348006840F0100021490860D8
:1016F0000846006820F0030008600846006840F0D3
:10170000020008601A484068194948600846406865
:1017100048600846406840F4806048600846406879
:1017200020F47C1048600846406840F4E8104860A7
:101730000846006840F08070086000BF0C480068F0
:1017400000F000700028F9D00948406820F003003C
:10175000074948600846406840F00200486000BF02
:101760000348406800F00C000828F9D10CBD0000C7
:1017700000100240002002407047000030B51649BA
:10178000B1F1807F00D31DE021F07F40401E4FF07B
:10179000E022506150170F22002807DA13071D0EB0
:1017A0000E4B00F00F04241F1D5503E013071C0E01
:1017B0000B4B1C5400BF00204FF0E022906107202B
:1017C000106100BF4FF0E020006920F001004FF0F1
:1017D000E021086130BD00004019010018ED00E073
:1017E00000E400E014494FF0E022516100219161D2
:1017F0001146096941F00101116100210F4A116090
:101800000CE000BF4FF0E021096901F480310029AC
:10181000F8D00A490968491C084A11600749096853
:101820008142EED34FF0E021096921F001014FF030
:10183000E0221161704700003F19010018000020EC
:1018400010B51348006840F00100114908600846CF
:101850004068104908400E494860084600680E4933
:1018600008400B4908600846006820F480200860A2
:101870000846406820F4FE0048604FF41F0088606E
:10188000FFF705FF4FF000600449086010BD00003D
:10189000001002400000FFF8FFFFF6FE08ED00E038
:1018A00010B58CB0044601210846FFF7CFFC00219B
:1018B0001348FFF707F8134800880190029410209E
:1018C00003902046FEF752FC0490002005900790FC
:1018D000802006900020089009904FF400500A9054
:1018E00000200B9001A90648FEF7F8FF4FF40050C6
:1018F000FEF7DAFF01210248FEF7E4FF0CB010BD4D
:10190000440002400438014021B1828942F400526F
:10191000828104E082894DF6FF731A40828170470C
:1019200000B585B001210420FFF7B0FC0121880338
:10193000FFF7ACFC4FF40070ADF8100018208DF8E4
:10194000130003208DF8120004A91648FFF7BCF815
:101950004FF48060ADF8100004208DF8130004A946
:101960001048FFF7B1F84FF4E13000900020ADF8D7
:101970000400ADF80600ADF80800ADF80C000C202E
:10198000ADF80A006946084800F026F801228021D7
:10199000054800F00BF801210348FFF7B5FF05B03B
:1019A00000BD000000080140003801401AB1838AE0
:1019B0000B43838202E0838A8B4383827047024613
:1019C0000020B1F5007F00D100BF13880B400BB1A0
:1019D000012000E0002070472DE9F04786B0054661
:1019E0000E460024A24600BFA1460027B08900B1E0
:1019F00000BF2F462C8A4CF6FF700440F088044349
:101A00002C82AC894EF6F3100440B088318908432B
:101A1000718908430443AC81AC8A4FF6FF4004400F
:101A2000B0890443AC8201A8FFF740FC1F488742FD
:101A300002D1DDF810A001E0DDF80CA0A88900F4C7
:101A4000004040B10AEBCA0000EB0A1031684900BF
:101A5000B0FBF1F807E00AEBCA0000EB0A103168AE
:101A60008900B0FBF1F86420B8FBF0F00401200914
:101A7000642101FB1089A88900F4004040B13220A4
:101A800000EBC900B0FBF1F000F00700044308E0F0
:101A9000322000EB09106421B0FBF1F000F00F00E0
:101AA00004432C8106B0BDE8F087000000380140F7
:101AB000C1F308028280704700BFFEE70FB4054BF8
:101AC00010B503A9044A029800F0F4F810BC5DF8C0
:101AD00014FB0000D12300081C0000200FB47CB5CB
:101AE0000C0009AD01D0611E00E00021CDE900012C
:101AF000064B6A462946089800F0DCF8002C02D014
:101B0000009A002111707CBC5DF814FBBB23000817
:101B100002E008C8121F08C1002AFAD170477047B6
:101B2000002001E001C1121F002AFBD17047000014
:101B30002DE9FF5F82B00021DDE90430020DDDF800
:101B400040B0034318D044F61050A2F2FF32424393
:101B50001514119801281FD0A5EB0B00401C5FEA5B
:101B6000000A4FF000064E4FDFF83891B04650465D
:101B700015D5CAF1000413E0119801244AA30128E5
:101B800001D16FEA0B010298119AC0E90031C0E956
:101B9000024206B0BDE8F09FCBF10000DFE704464B
:101BA0000021404A491842EB0450CDE9001012E0F0
:101BB000E00707D032463B4640464946FEF70EFC5A
:101BC0008046894632463B4610461946FEF706FCDB
:101BD00006460F466410002CEAD1DDE90401DDE978
:101BE0000023BAF1000F06DAFEF7F8FB42464B4637
:101BF000FEF7F4FB05E0FEF763FC42464B46FEF7BA
:101C00005FFC04460E460022284BFEF711FE03D867
:101C10004FF0FF30014607E00022254B20463146B9
:101C2000FEF735FBFEF7EBFD102409E0002C0ADB84
:101C30000A220023FEF7FDFC039B30321A55641E76
:101C400050EA0102F2D1641C039AC4F11103144456
:101C5000119A012A03D0012208430DD10AE008435A
:101C600004D000204FF0110B119072E7A3EB0B058D
:101C70006D1E0DE05B4504DD4FF0000205F101052E
:101C800004E003DA4FF00002A5F10105002AECD0D0
:101C900002981199C0E90231C0E9004579E70000D6
:101CA000000014400000F03F300000000000F0434E
:101CB0000000E03F2DE9FF4F95B09A468846064662
:101CC0000025EEE1252877D100242746F94A012195
:101CD000039400E0044316F8013F203B01FA03F0AF
:101CE0001042F7D130782A2811D06FF02F033078C6
:101CF000A0F13002092A16D8039A44F0020402EB3C
:101D0000820203EB42021044761C0390EFE758F87E
:101D1000042B0392002A03DA504244F40054039047
:101D200044F00204761C30782E2816D116F8010FE4
:101D300044F004042A280DD06FF02F023078A0F16F
:101D40003003092B09D807EB870302EB4303C718BD
:101D5000761CF3E758F8047B761C30786C280FD09B
:101D600006DC4C2817D068280DD06A2814D104E06E
:101D7000742810D07A280FD10DE044F400140AE042
:101D800044F4801401E044F440147278824202D199
:101D900004F58014761C761C307866280BD013DC92
:101DA000582877D009DC002875D04528F6D0462879
:101DB000F4D047281AD193E118E0632835D064287D
:101DC00079D0652812D18BE1702873D008DC6728A0
:101DD000F1D069286FD06E280DD06F2806D1ACE005
:101DE00073282CD0752874D0782853D05246179970
:101DF00090476D1C54E1C4F30250022809D0032817
:101E00000DD0D8F8001004280DD00D6008F104089A
:101E100046E1D8F80010EA17C1E90052F6E7D8F811
:101E200000100D80F2E70D70F0E718F8041B8DF834
:101E3000001000208DF80100EB46012003E058F867
:101E400004BB4FF0FF3061074FF0000102D40DE0FA
:101E500009F101018946B9420FDA8145F8DB1BF827
:101E600009100029F4D108E009F1010189468142F5
:101E7000FADB1BF809100029F6D103985346A0EBB2
:101E8000090721463846179A00F080FA284400EBEB
:101E9000090507E044E008E10DE01BF8010B52469C
:101EA00017999047B9F10109F7D2534621463846B0
:101EB000179AF2E039E00A21C4F302524FF0000B06
:101EC0000091022A06D058F8040BC117032A09D042
:101ED0000AE023E008F1070020F00702F2E802011F
:101EE000904605E000B2C117042A01D140B2C117E3
:101EF000002906DA0A460021404261EB02012D2248
:101F000002E0220504D52B228DF80420012203E0F3
:101F1000E20701D02022F7E7914657E00A2100E0CE
:101F200010214FF0000B00910BE010214FF0000B3F
:101F300044F004040827009103E008204FF0000B50
:101F40000090C4F30252022A05D058F8040B002175
:101F5000032A08D008E008F1070020F00702F2E8A1
:101F60000201904603E080B2042A00D1C0B24FF0D3
:101F7000000922072AD53278702A07D0DDF800C080
:101F80008CF0100C5CEA0B0C05D00EE040228DF8B2
:101F90000420012208E050EA010306D030238DF826
:101FA00004308DF8052002229146009B83F008033F
:101FB00053EA0B030AD150EA010201D1620705D5A9
:101FC00030228DF804204FF001097F1E3278582A04
:101FD00004D039A20C920CAA02920BE03BA2F9E7C2
:101FE0005B46009AFEF725FB0C9B9B5C029A521EF7
:101FF0000292137050EA0102F2D1029804A9081A61
:1020000000F1200B600702D524F4803400E00127A2
:102010005F4502DDA7EB0B0000E0002000EB0B01A9
:10202000009003984944401A0390E00306D45346B5
:102030002146179A039800F0A9F90544002706E005
:1020400001A85246C05D179990476D1C7F1C4F45F3
:10205000F6DBE0030CD553462146179A039800F0AF
:1020600095F9054404E030205246179990476D1CBD
:102070000099481E00900029F5DC08E002980299BA
:1020800052460078491C0291179990476D1CBBF18C
:102090000001ABF1010BF1DC5BE100F065F90544F7
:1020A000761C307800287FF40DAE19B02846BDE8C4
:1020B000F08F0000092801003031323334353637D3
:1020C0003839616263646566000000003031323384
:1020D0003435363738394142434445460000000024
:1020E000600700D4062708F1070020F00700F0E899
:1020F0000223804603F0004C5FEA0C0001D097A059
:1021000009E0200501D596A005E0E00701D095A0E3
:1021100001E0AFF24C001390307823F000436528C3
:102120000CD006DC452809D046281DD047287FD191
:102130003BE0662818D067287AD136E00021112FBD
:1021400001DB112000E0781CCDE9000104A90CA8F6
:10215000FFF7EEFCDDE90D010C9A4FF0000B07F1E3
:102160000109109200914EE04FF000400097CDE938
:10217000011004A90CA8FFF7DBFCDDE90D020C9BA4
:102180000F994FF0000B91461093009211B9791CF2
:1021900000EB0109B7EB090003D4C0F1FF3B07F1E5
:1021A0000109A9EB0700019042E0012F00DA0127A5
:1021B0000021112F01DD112000E03846CDE900019A
:1021C00004A90CA8FFF7B4FCDDE90D010C9A0091FD
:1021D0004FF0000BB946109221070FD4009A4A45E0
:1021E00003DA914601E0A9F10109B9F1010F05DD1A
:1021F000109AA9F10101515C3029F4D0B84202DAF9
:1022000010F1040F03DA0121CDE9011010E00028DC
:1022100003DC8344A9EB000102E0411C494500DDD9
:102220008946A0EB0B00401C01904FF0004002904B
:10223000200705D40198484502DB4FF0FF3001909C
:1022400000208DF84B0002980DF14B07B0F1004FC4
:1022500025D002200C902B200D90029800280CDA3B
:10226000404202902D200D9007E00A210298FEF7CF
:10227000CAF93031029007F8011D0C99481E0C90E4
:102280000029F2DC02980028EFD1791E0D98087021
:10229000307800F0200040F0450007F8020D11A84A
:1022A000C01BC01D02901398007800B1012000EB04
:1022B0000901019801EBE071029801440398401A6A
:1022C000401E0390E00306D453462146179A039814
:1022D00000F05CF805441398007818B1524617993D
:1022E00090476D1CE00323D553462146179A039867
:1022F00000F04CF805441BE0BBF1000F07DB009831
:10230000584504DD1098179910F80B0001E0179953
:1023100030205246904701980BF1010B401E05F109
:102320000105019004D12E205246179990476D1C4B
:10233000B9F10001A9F10109DEDC05E017F8010B94
:102340005246179990476D1C0299481E0290002929
:10235000F4DC53462146179A03989EE62D000000B0
:102360002B000000200000002DE9F041044600256C
:102370001E461746880404D405E039462020B0479D
:102380006D1C641EF9D52846BDE8F0812DE9F041A9
:10239000044600251E469046C80301D5302700E0BC
:1023A0002027880404D505E041463846B0476D1C17
:1023B000641EF9D52846BDE8F0814A68002A06D097
:1023C0000A68531C0B6010704868401E48607047D4
:1023D00070B504460D46E1B20548FFF769FB00BF42
:1023E00080210348FFF7EBFA0028F9D0204670BDA2
:1023F00000380140A2B00224FFF792FAFEF700FC79
:10240000FFF7BCF9FEF710FDFEF700FB4FA0FFF74A
:1024100055FBFEF7ABFD2DE0FEF75EFD4DA2002162
:102420000320FEF79BFE4FF47A70FFF7DBF9FEF70F
:1024300053FD4CA200210320FEF790FE4FF4FA70EA
:10244000FFF7D0F9FEF748FD4AA200210320FEF76E
:1024500085FE4FF4FA70FFF7C5F9FEF73DFD49A27E
:1024600000210320FEF77AFE4FF4FA70FFF7BAF965
:10247000601EC4B2002CCFD1FEF72EFD46A2002173
:102480000846FEF76BFE60E0FFF714F88346FFF79F
:1024900011F881464548007801281CD00A20FFF732
:1024A000A1F901214248FEF79AFBC8B93F480078DC
:1024B00008B1284608E03F492846FDF7B6FE064623
:1024C0004FF08441FDF759FE0546002229460220BF
:1024D000FEF770FE04E0012249460220FEF76AFE84
:1024E0005846FEF761F834A2CDE90001402112A858
:1024F000FFF7F4FA12A8FFF7D3F9FEF741FF82467F
:102500005046FEF751F830A2CDE90001402102A863
:10251000FFF7E4FA02A8FFF7C3F95046FEF744F8C4
:1025200005460E465846FEF73FF807463A460B4624
:1025300029A0CDE90056FFF7C1FA51460420FEF765
:10254000EBFC4FF47A70FFF74DF99DE7535441527D
:10255000540A00002020202020206C6F6164696EE6
:10256000670000002020202020206C6F6164696ECD
:10257000672E00002020202020206C6F6164696E8F
:10258000672E2E002020202020206C6F6164696E51
:10259000672E2E2E000000002D2D2D2D5348543275
:1025A000302073656E736F722D2D2D001400002086
:1025B000000801406666E63F54656D703A20252E9E
:1025C0003266A258430A000068756D693A20252ECC
:1025D0003266A258430A0000252E32662C252E3280
:1025E000660A000000000000000000005F0000001C
:1025F000000700070000147F147F1400242A7F2A9C
:102600001200231308646200364955225000000569
:1026100003000000001C224100000041221C0000B9
:1026200014083E08140008083E0808000050300056
:102630000000080808080800006060000000201082
:10264000080402003E5149453E0000427F40000020
:102650004261514946002141454B31001814127F17
:1026600010002745454539003C4A49493000017171
:1026700009050300364949493600064949291E0023
:1026800000363600000000563600000008142241D3
:102690000000141414141400004122140800020154
:1026A00051090600324979413E007E1111117E0028
:1026B0007F49494936003E41414122007F41412244
:1026C0001C007F49494941007F09090901003E4139
:1026D00049497A007F0808087F0000417F410000D7
:1026E0002040413F01007F08142241007F404040CC
:1026F00040007F0204027F007F0408107F003E41FB
:1027000041413E007F09090906003E4151215E001A
:102710007F091929460046494949310001017F01D5
:1027200001003F4040403F001F2040201F007F200D
:1027300018207F0063140814630003047804030066
:10274000615149454300007F4141000002040810E7
:1027500020000041417F00000402010204004040CB
:10276000404040000001020400002054545478000E
:102770007F484444380038444444200038444448A6
:102780007F00385454541800087E090102000C528E
:1027900052523E007F080404780000447D4000004F
:1027A0002040443D00007F102844000000417F404D
:1027B00000007C04180478007C0804047800384485
:1027C000444438007C1414140800081414187C00C5
:1027D0007C0804040800485454542000043F44403A
:1027E00020003C4040207C001C2040201C003C403D
:1027F00030403C004428102844000C5050503C000D
:102800004464544C440000083641000000007F003E
:1028100000000041360800001008081008000609F2
:1028200009060000442800080000002020000000E5
:10283000101B00086428000820000020000400008D
:10284000201B000800000000010203040102030431
:102850000607080902040608010000000000000045
:042860000000000074
:0400000508000131BD
:00000001FF
